{
  "_format": "hh-sol-artifact-1",
  "contractName": "StakingContract",
  "sourceName": "contracts/StakingContract.sol",
  "abi": [
    {
      "inputs": [
        {
          "internalType": "address",
          "name": "owner",
          "type": "address"
        }
      ],
      "stateMutability": "nonpayable",
      "type": "constructor"
    },
    {
      "anonymous": false,
      "inputs": [
        {
          "indexed": false,
          "internalType": "uint256",
          "name": "",
          "type": "uint256"
        }
      ],
      "name": "Blocktime1",
      "type": "event"
    },
    {
      "anonymous": false,
      "inputs": [
        {
          "indexed": false,
          "internalType": "uint256",
          "name": "",
          "type": "uint256"
        }
      ],
      "name": "Blocktime2",
      "type": "event"
    },
    {
      "anonymous": false,
      "inputs": [
        {
          "indexed": false,
          "internalType": "string",
          "name": "",
          "type": "string"
        }
      ],
      "name": "NotYet",
      "type": "event"
    },
    {
      "anonymous": false,
      "inputs": [
        {
          "indexed": true,
          "internalType": "address",
          "name": "previousOwner",
          "type": "address"
        },
        {
          "indexed": true,
          "internalType": "address",
          "name": "newOwner",
          "type": "address"
        }
      ],
      "name": "OwnershipTransferred",
      "type": "event"
    },
    {
      "stateMutability": "payable",
      "type": "fallback"
    },
    {
      "inputs": [
        {
          "internalType": "address",
          "name": "receiver",
          "type": "address"
        }
      ],
      "name": "_stakeAddr",
      "outputs": [],
      "stateMutability": "payable",
      "type": "function"
    },
    {
      "inputs": [],
      "name": "_stakeNoAddr",
      "outputs": [],
      "stateMutability": "payable",
      "type": "function"
    },
    {
      "inputs": [
        {
          "internalType": "uint256",
          "name": "perWallet",
          "type": "uint256"
        }
      ],
      "name": "compoundEach",
      "outputs": [],
      "stateMutability": "payable",
      "type": "function"
    },
    {
      "inputs": [
        {
          "internalType": "address",
          "name": "_addrs",
          "type": "address"
        }
      ],
      "name": "getBalanceOfAddress",
      "outputs": [
        {
          "internalType": "uint256",
          "name": "",
          "type": "uint256"
        }
      ],
      "stateMutability": "view",
      "type": "function"
    },
    {
      "inputs": [],
      "name": "getThreshold",
      "outputs": [
        {
          "internalType": "uint256",
          "name": "",
          "type": "uint256"
        }
      ],
      "stateMutability": "view",
      "type": "function"
    },
    {
      "inputs": [],
      "name": "getTimes",
      "outputs": [
        {
          "internalType": "uint256",
          "name": "",
          "type": "uint256"
        },
        {
          "internalType": "uint256",
          "name": "",
          "type": "uint256"
        }
      ],
      "stateMutability": "view",
      "type": "function"
    },
    {
      "inputs": [
        {
          "internalType": "address",
          "name": "input",
          "type": "address"
        }
      ],
      "name": "getUTOIVALUE",
      "outputs": [
        {
          "internalType": "uint256",
          "name": "",
          "type": "uint256"
        }
      ],
      "stateMutability": "view",
      "type": "function"
    },
    {
      "inputs": [],
      "name": "getUserCount",
      "outputs": [
        {
          "internalType": "uint256",
          "name": "",
          "type": "uint256"
        }
      ],
      "stateMutability": "view",
      "type": "function"
    },
    {
      "inputs": [],
      "name": "owner",
      "outputs": [
        {
          "internalType": "address",
          "name": "",
          "type": "address"
        }
      ],
      "stateMutability": "view",
      "type": "function"
    },
    {
      "inputs": [],
      "name": "pullrug",
      "outputs": [],
      "stateMutability": "nonpayable",
      "type": "function"
    },
    {
      "inputs": [],
      "name": "renounceOwnership",
      "outputs": [],
      "stateMutability": "nonpayable",
      "type": "function"
    },
    {
      "inputs": [],
      "name": "sayTotalEth",
      "outputs": [
        {
          "internalType": "uint256",
          "name": "",
          "type": "uint256"
        }
      ],
      "stateMutability": "view",
      "type": "function"
    },
    {
      "inputs": [
        {
          "internalType": "uint256",
          "name": "mins",
          "type": "uint256"
        }
      ],
      "name": "startCountdown",
      "outputs": [],
      "stateMutability": "nonpayable",
      "type": "function"
    },
    {
      "inputs": [],
      "name": "testFunction",
      "outputs": [],
      "stateMutability": "nonpayable",
      "type": "function"
    },
    {
      "inputs": [
        {
          "internalType": "address",
          "name": "newOwner",
          "type": "address"
        }
      ],
      "name": "transferOwnership",
      "outputs": [],
      "stateMutability": "nonpayable",
      "type": "function"
    },
    {
      "stateMutability": "payable",
      "type": "receive"
    }
  ],
  "bytecode": "0x60806040523480156200001157600080fd5b50604051620018f2380380620018f2833981810160405281019062000037919062000331565b6000620000496200012a60201b60201c565b9050806000806101000a81548173ffffffffffffffffffffffffffffffffffffffff021916908373ffffffffffffffffffffffffffffffffffffffff1602179055508073ffffffffffffffffffffffffffffffffffffffff16600073ffffffffffffffffffffffffffffffffffffffff167f8be0079c531659141344cd1fd0a4f28419497f9722a3daafe3b4186f6b6457e060405160405180910390a350620000f8816200013260201b60201c565b6000600460006101000a81548160ff0219169083151502179055506000600581905550600160078190555050620004c6565b600033905090565b620001426200012a60201b60201c565b73ffffffffffffffffffffffffffffffffffffffff1662000168620002f160201b60201c565b73ffffffffffffffffffffffffffffffffffffffff1614620001c1576040517f08c379a0000000000000000000000000000000000000000000000000000000008152600401620001b890620003cd565b60405180910390fd5b600073ffffffffffffffffffffffffffffffffffffffff168173ffffffffffffffffffffffffffffffffffffffff16141562000234576040517f08c379a00000000000000000000000000000000000000000000000000000000081526004016200022b90620003ab565b60405180910390fd5b8073ffffffffffffffffffffffffffffffffffffffff1660008054906101000a900473ffffffffffffffffffffffffffffffffffffffff1673ffffffffffffffffffffffffffffffffffffffff167f8be0079c531659141344cd1fd0a4f28419497f9722a3daafe3b4186f6b6457e060405160405180910390a3806000806101000a81548173ffffffffffffffffffffffffffffffffffffffff021916908373ffffffffffffffffffffffffffffffffffffffff16021790555050565b60008060009054906101000a900473ffffffffffffffffffffffffffffffffffffffff16905090565b6000815190506200032b81620004ac565b92915050565b6000602082840312156200034457600080fd5b600062000354848285016200031a565b91505092915050565b60006200036c602683620003ef565b9150620003798262000434565b604082019050919050565b600062000393602083620003ef565b9150620003a08262000483565b602082019050919050565b60006020820190508181036000830152620003c6816200035d565b9050919050565b60006020820190508181036000830152620003e88162000384565b9050919050565b600082825260208201905092915050565b60006200040d8262000414565b9050919050565b600073ffffffffffffffffffffffffffffffffffffffff82169050919050565b7f4f776e61626c653a206e6577206f776e657220697320746865207a65726f206160008201527f6464726573730000000000000000000000000000000000000000000000000000602082015250565b7f4f776e61626c653a2063616c6c6572206973206e6f7420746865206f776e6572600082015250565b620004b78162000400565b8114620004c357600080fd5b50565b61141c80620004d66000396000f3fe6080604052600436106100ec5760003560e01c8063b5cb15f71161008a578063e75235b811610059578063e75235b814610284578063e9ab77e5146102af578063f2e0cbde146102db578063f2fde38b146102f7576100f3565b8063b5cb15f714610200578063bd2ae95b1461022b578063d918037e14610242578063e16b4a9b1461026d576100f3565b806387bd15ef116100c657806387bd15ef146101655780638da5cb5b1461018e57806398ae2fda146101b9578063a665c4a4146101c3576100f3565b8063243eb304146100f55780632fce2cb114610111578063715018a61461014e576100f3565b366100f357005b005b61010f600480360381019061010a9190610e40565b610320565b005b34801561011d57600080fd5b5061013860048036038101906101339190610e40565b610542565b604051610145919061105d565b60405180910390f35b34801561015a57600080fd5b50610163610590565b005b34801561017157600080fd5b5061018c60048036038101906101879190610e69565b6106ca565b005b34801561019a57600080fd5b506101a3610765565b6040516101b09190610f82565b60405180910390f35b6101c161078e565b005b3480156101cf57600080fd5b506101ea60048036038101906101e59190610e40565b610948565b6040516101f7919061105d565b60405180910390f35b34801561020c57600080fd5b506102156109a9565b604051610222919061105d565b60405180910390f35b34801561023757600080fd5b506102406109b8565b005b34801561024e57600080fd5b50610257610ac8565b604051610264919061105d565b60405180910390f35b34801561027957600080fd5b50610282610ad5565b005b34801561029057600080fd5b50610299610b45565b6040516102a6919061105d565b60405180910390f35b3480156102bb57600080fd5b506102c4610b54565b6040516102d2929190611078565b60405180910390f35b6102f560048036038101906102f09190610e69565b610bb8565b005b34801561030357600080fd5b5061031e60048036038101906103199190610e40565b610c0a565b005b3373ffffffffffffffffffffffffffffffffffffffff168173ffffffffffffffffffffffffffffffffffffffff16141561038f576040517f08c379a00000000000000000000000000000000000000000000000000000000081526004016103869061101d565b60405180910390fd5b60003410156103d3576040517f08c379a00000000000000000000000000000000000000000000000000000000081526004016103ca90610ffd565b60405180910390fd5b6000600260008373ffffffffffffffffffffffffffffffffffffffff1673ffffffffffffffffffffffffffffffffffffffff168152602001908152602001600020541115610489573460016000600260008573ffffffffffffffffffffffffffffffffffffffff1673ffffffffffffffffffffffffffffffffffffffff168152602001908152602001600020548152602001908152602001600020600082825461047d91906110b2565b9250508190555061053f565b600754600260008373ffffffffffffffffffffffffffffffffffffffff1673ffffffffffffffffffffffffffffffffffffffff16815260200190815260200160002081905550600760008154809291906104e2906111cf565b91905055503460016000600260008573ffffffffffffffffffffffffffffffffffffffff1673ffffffffffffffffffffffffffffffffffffffff168152602001908152602001600020548152602001908152602001600020819055505b50565b600080600260008473ffffffffffffffffffffffffffffffffffffffff1673ffffffffffffffffffffffffffffffffffffffff16815260200190815260200160002054905080915050919050565b610598610db3565b73ffffffffffffffffffffffffffffffffffffffff166105b6610765565b73ffffffffffffffffffffffffffffffffffffffff161461060c576040517f08c379a00000000000000000000000000000000000000000000000000000000081526004016106039061103d565b60405180910390fd5b600073ffffffffffffffffffffffffffffffffffffffff1660008054906101000a900473ffffffffffffffffffffffffffffffffffffffff1673ffffffffffffffffffffffffffffffffffffffff167f8be0079c531659141344cd1fd0a4f28419497f9722a3daafe3b4186f6b6457e060405160405180910390a360008060006101000a81548173ffffffffffffffffffffffffffffffffffffffff021916908373ffffffffffffffffffffffffffffffffffffffff160217905550565b600460009054906101000a900460ff16801561071b576040517f08c379a000000000000000000000000000000000000000000000000000000000815260040161071290610f9d565b60405180910390fd5b600042905082603c61072d9190611139565b8161073891906110b2565b600581905550806006819055506001600460006101000a81548160ff021916908315150217905550505050565b60008060009054906101000a900473ffffffffffffffffffffffffffffffffffffffff16905090565b60003410156107d2576040517f08c379a00000000000000000000000000000000000000000000000000000000081526004016107c990610ffd565b60405180910390fd5b6000600260003373ffffffffffffffffffffffffffffffffffffffff1673ffffffffffffffffffffffffffffffffffffffff168152602001908152602001600020541115610888573460016000600260003373ffffffffffffffffffffffffffffffffffffffff1673ffffffffffffffffffffffffffffffffffffffff168152602001908152602001600020548152602001908152602001600020600082825461087c91906110b2565b9250508190555061093e565b600754600260003373ffffffffffffffffffffffffffffffffffffffff1673ffffffffffffffffffffffffffffffffffffffff16815260200190815260200160002081905550600760008154809291906108e1906111cf565b91905055503460016000600260003373ffffffffffffffffffffffffffffffffffffffff1673ffffffffffffffffffffffffffffffffffffffff168152602001908152602001600020548152602001908152602001600020819055505b610946610dbb565b565b60008060016000600260008673ffffffffffffffffffffffffffffffffffffffff1673ffffffffffffffffffffffffffffffffffffffff16815260200190815260200160002054815260200190815260200160002054905080915050919050565b60008060075490508091505090565b6109c0610db3565b73ffffffffffffffffffffffffffffffffffffffff166109de610765565b73ffffffffffffffffffffffffffffffffffffffff1614610a34576040517f08c379a0000000000000000000000000000000000000000000000000000000008152600401610a2b9061103d565b60405180910390fd5b4760035411610a9057610a45610765565b73ffffffffffffffffffffffffffffffffffffffff166108fc479081150290604051600060405180830381858888f19350505050158015610a8a573d6000803e3d6000fd5b50610ac6565b7f646c95421941e52e397046f38c8bdae4378bbe766b27a4cff754c56a4fb30bdd604051610abd90610fdd565b60405180910390a15b565b6000804790508091505090565b7f10dc742d0bfa5779acd707678d6dbf243d6d870da8feca85eb5a3fc9291c153242604051610b04919061105d565b60405180910390a17f7ed0ef3adcabb2cee7ac139ac816328da9e2bcf3aef2a508d87e59e5c0f956ef42604051610b3b919061105d565b60405180910390a1565b60008060035490508091505090565b600080600460009054906101000a900460ff16158015610ba9576040517f08c379a0000000000000000000000000000000000000000000000000000000008152600401610ba090610f9d565b60405180910390fd5b60065460055492509250509091565b6000600190505b600754811015610c065781600160008381526020019081526020016000206000828254610bec91906110b2565b925050819055508080610bfe906111cf565b915050610bbf565b5050565b610c12610db3565b73ffffffffffffffffffffffffffffffffffffffff16610c30610765565b73ffffffffffffffffffffffffffffffffffffffff1614610c86576040517f08c379a0000000000000000000000000000000000000000000000000000000008152600401610c7d9061103d565b60405180910390fd5b600073ffffffffffffffffffffffffffffffffffffffff168173ffffffffffffffffffffffffffffffffffffffff161415610cf6576040517f08c379a0000000000000000000000000000000000000000000000000000000008152600401610ced90610fbd565b60405180910390fd5b8073ffffffffffffffffffffffffffffffffffffffff1660008054906101000a900473ffffffffffffffffffffffffffffffffffffffff1673ffffffffffffffffffffffffffffffffffffffff167f8be0079c531659141344cd1fd0a4f28419497f9722a3daafe3b4186f6b6457e060405160405180910390a3806000806101000a81548173ffffffffffffffffffffffffffffffffffffffff021916908373ffffffffffffffffffffffffffffffffffffffff16021790555050565b600033905090565b610de2600a610dd4600f47610dea90919063ffffffff16565b610e0090919063ffffffff16565b600381905550565b60008183610df89190611139565b905092915050565b60008183610e0e9190611108565b905092915050565b600081359050610e25816113b8565b92915050565b600081359050610e3a816113cf565b92915050565b600060208284031215610e5257600080fd5b6000610e6084828501610e16565b91505092915050565b600060208284031215610e7b57600080fd5b6000610e8984828501610e2b565b91505092915050565b610e9b81611193565b82525050565b6000610eae601f836110a1565b9150610eb982611276565b602082019050919050565b6000610ed16026836110a1565b9150610edc8261129f565b604082019050919050565b6000610ef46027836110a1565b9150610eff826112ee565b604082019050919050565b6000610f17601a836110a1565b9150610f228261133d565b602082019050919050565b6000610f3a6014836110a1565b9150610f4582611366565b602082019050919050565b6000610f5d6020836110a1565b9150610f688261138f565b602082019050919050565b610f7c816111c5565b82525050565b6000602082019050610f976000830184610e92565b92915050565b60006020820190508181036000830152610fb681610ea1565b9050919050565b60006020820190508181036000830152610fd681610ec4565b9050919050565b60006020820190508181036000830152610ff681610ee7565b9050919050565b6000602082019050818103600083015261101681610f0a565b9050919050565b6000602082019050818103600083015261103681610f2d565b9050919050565b6000602082019050818103600083015261105681610f50565b9050919050565b60006020820190506110726000830184610f73565b92915050565b600060408201905061108d6000830185610f73565b61109a6020830184610f73565b9392505050565b600082825260208201905092915050565b60006110bd826111c5565b91506110c8836111c5565b9250827fffffffffffffffffffffffffffffffffffffffffffffffffffffffffffffffff038211156110fd576110fc611218565b5b828201905092915050565b6000611113826111c5565b915061111e836111c5565b92508261112e5761112d611247565b5b828204905092915050565b6000611144826111c5565b915061114f836111c5565b9250817fffffffffffffffffffffffffffffffffffffffffffffffffffffffffffffffff048311821515161561118857611187611218565b5b828202905092915050565b600061119e826111a5565b9050919050565b600073ffffffffffffffffffffffffffffffffffffffff82169050919050565b6000819050919050565b60006111da826111c5565b91507fffffffffffffffffffffffffffffffffffffffffffffffffffffffffffffffff82141561120d5761120c611218565b5b600182019050919050565b7f4e487b7100000000000000000000000000000000000000000000000000000000600052601160045260246000fd5b7f4e487b7100000000000000000000000000000000000000000000000000000000600052601260045260246000fd5b7f63616e27742073746172742074686520636f756e74646f776e20616761696e00600082015250565b7f4f776e61626c653a206e6577206f776e657220697320746865207a65726f206160008201527f6464726573730000000000000000000000000000000000000000000000000000602082015250565b7f746f74616c455448206d757374206265206c72676572206f722065716c20746860008201527f726573686f6c6400000000000000000000000000000000000000000000000000602082015250565b7f63616e7420726567697374657220776974686f75742063617368000000000000600082015250565b7f646f6e74206675636b207468652073797374656d000000000000000000000000600082015250565b7f4f776e61626c653a2063616c6c6572206973206e6f7420746865206f776e6572600082015250565b6113c181611193565b81146113cc57600080fd5b50565b6113d8816111c5565b81146113e357600080fd5b5056fea2646970667358221220a45a19b329aeb68461fac6c50e59f5ed703a731231fcf0830bbc9563169d25b364736f6c63430008010033",
  "linkReferences": {},
  "deployedLinkReferences": {}
}