{
  "_format": "hh-sol-artifact-1",
  "contractName": "PiggyBank",
  "sourceName": "contracts/PiggyBank.sol",
  "abi": [
    {
      "inputs": [
        {
          "internalType": "address",
          "name": "_stakingContract",
          "type": "address"
        }
      ],
      "stateMutability": "payable",
      "type": "constructor"
    },
    {
      "stateMutability": "payable",
      "type": "fallback"
    },
    {
      "inputs": [],
      "name": "CURRENTTIME",
      "outputs": [
        {
          "internalType": "uint256",
          "name": "",
          "type": "uint256"
        }
      ],
      "stateMutability": "view",
      "type": "function"
    },
    {
      "inputs": [],
      "name": "getBalance",
      "outputs": [
        {
          "internalType": "uint256",
          "name": "",
          "type": "uint256"
        }
      ],
      "stateMutability": "view",
      "type": "function"
    },
    {
      "inputs": [],
      "name": "getTimes",
      "outputs": [
        {
          "internalType": "uint256",
          "name": "",
          "type": "uint256"
        },
        {
          "internalType": "uint256",
          "name": "",
          "type": "uint256"
        }
      ],
      "stateMutability": "view",
      "type": "function"
    },
    {
      "inputs": [],
      "name": "payInterestOnPing",
      "outputs": [],
      "stateMutability": "nonpayable",
      "type": "function"
    },
    {
      "inputs": [],
      "name": "setUpTimes",
      "outputs": [],
      "stateMutability": "nonpayable",
      "type": "function"
    },
    {
      "stateMutability": "payable",
      "type": "receive"
    }
  ],
  "bytecode": "0x6080604052604051610bc8380380610bc883398181016040528101906100259190610088565b806000806101000a81548173ffffffffffffffffffffffffffffffffffffffff021916908373ffffffffffffffffffffffffffffffffffffffff1602179055506000600181905550506100fa565b600081519050610082816100e3565b92915050565b60006020828403121561009a57600080fd5b60006100a884828501610073565b91505092915050565b60006100bc826100c3565b9050919050565b600073ffffffffffffffffffffffffffffffffffffffff82169050919050565b6100ec816100b1565b81146100f757600080fd5b50565b610abf806101096000396000f3fe60806040526004361061004e5760003560e01c806312065fe01461005757806338fd49e31461008257806344a5ee3b146100995780639765eac3146100c4578063e9ab77e5146100db57610055565b3661005557005b005b34801561006357600080fd5b5061006c610107565b604051610079919061087b565b60405180910390f35b34801561008e57600080fd5b5061009761010f565b005b3480156100a557600080fd5b506100ae61050b565b6040516100bb919061087b565b60405180910390f35b3480156100d057600080fd5b506100d9610513565b005b3480156100e757600080fd5b506100f06106d6565b6040516100fe929190610896565b60405180910390f35b600047905090565b60006101c2600160008054906101000a900473ffffffffffffffffffffffffffffffffffffffff1673ffffffffffffffffffffffffffffffffffffffff1663b5cb15f76040518163ffffffff1660e01b815260040160206040518083038186803b15801561017c57600080fd5b505afa158015610190573d6000803e3d6000fd5b505050506040513d601f19601f820116820180604052508101906101b4919061073e565b6106e790919063ffffffff16565b1015610203576040517f08c379a00000000000000000000000000000000000000000000000000000000081526004016101fa9061081b565b60405180910390fd5b6000429050600061032464174876e8006103166102c860055460008054906101000a900473ffffffffffffffffffffffffffffffffffffffff1673ffffffffffffffffffffffffffffffffffffffff1663e75235b86040518163ffffffff1660e01b815260040160206040518083038186803b15801561028257600080fd5b505afa158015610296573d6000803e3d6000fd5b505050506040513d601f19601f820116820180604052508101906102ba919061073e565b6106e790919063ffffffff16565b6103086004546102fa64174876e8006102ec6001548b6106e790919063ffffffff16565b6106fd90919063ffffffff16565b61071390919063ffffffff16565b6106fd90919063ffffffff16565b61071390919063ffffffff16565b905060008111610369576040517f08c379a00000000000000000000000000000000000000000000000000000000081526004016103609061083b565b60405180910390fd5b600061042e61041f600160008054906101000a900473ffffffffffffffffffffffffffffffffffffffff1673ffffffffffffffffffffffffffffffffffffffff1663b5cb15f76040518163ffffffff1660e01b815260040160206040518083038186803b1580156103d957600080fd5b505afa1580156103ed573d6000803e3d6000fd5b505050506040513d601f19601f82011682018060405250810190610411919061073e565b6106e790919063ffffffff16565b8361071390919063ffffffff16565b9050826001819055506000811161047a576040517f08c379a00000000000000000000000000000000000000000000000000000000081526004016104719061083b565b60405180910390fd5b60008054906101000a900473ffffffffffffffffffffffffffffffffffffffff1673ffffffffffffffffffffffffffffffffffffffff1663f2e0cbde83836040518363ffffffff1660e01b81526004016104d4919061087b565b6000604051808303818588803b1580156104ed57600080fd5b505af1158015610501573d6000803e3d6000fd5b5050505050505050565b600042905090565b60006001541015610559576040517f08c379a00000000000000000000000000000000000000000000000000000000081526004016105509061085b565b60405180910390fd5b60008054906101000a900473ffffffffffffffffffffffffffffffffffffffff1673ffffffffffffffffffffffffffffffffffffffff1663e9ab77e56040518163ffffffff1660e01b8152600401604080518083038186803b1580156105be57600080fd5b505afa1580156105d2573d6000803e3d6000fd5b505050506040513d601f19601f820116820180604052508101906105f69190610767565b600260006003600084919050558391905055505060025460018190555061062a6002546003546106e790919063ffffffff16565b60048190555060008054906101000a900473ffffffffffffffffffffffffffffffffffffffff1673ffffffffffffffffffffffffffffffffffffffff1663d918037e6040518163ffffffff1660e01b815260040160206040518083038186803b15801561069657600080fd5b505afa1580156106aa573d6000803e3d6000fd5b505050506040513d601f19601f820116820180604052508101906106ce919061073e565b600581905550565b600080600254600354915091509091565b600081836106f5919061095b565b905092915050565b6000818361070b9190610901565b905092915050565b6000818361072191906108d0565b905092915050565b60008151905061073881610a72565b92915050565b60006020828403121561075057600080fd5b600061075e84828501610729565b91505092915050565b6000806040838503121561077a57600080fd5b600061078885828601610729565b925050602061079985828601610729565b9150509250929050565b60006107b06008836108bf565b91506107bb826109f7565b602082019050919050565b60006107d3600d836108bf565b91506107de82610a20565b602082019050919050565b60006107f66009836108bf565b915061080182610a49565b602082019050919050565b6108158161098f565b82525050565b60006020820190508181036000830152610834816107a3565b9050919050565b60006020820190508181036000830152610854816107c6565b9050919050565b60006020820190508181036000830152610874816107e9565b9050919050565b6000602082019050610890600083018461080c565b92915050565b60006040820190506108ab600083018561080c565b6108b8602083018461080c565b9392505050565b600082825260208201905092915050565b60006108db8261098f565b91506108e68361098f565b9250826108f6576108f56109c8565b5b828204905092915050565b600061090c8261098f565b91506109178361098f565b9250817fffffffffffffffffffffffffffffffffffffffffffffffffffffffffffffffff04831182151516156109505761094f610999565b5b828202905092915050565b60006109668261098f565b91506109718361098f565b92508282101561098457610983610999565b5b828203905092915050565b6000819050919050565b7f4e487b7100000000000000000000000000000000000000000000000000000000600052601160045260246000fd5b7f4e487b7100000000000000000000000000000000000000000000000000000000600052601260045260246000fd5b7f6e6f207573657273000000000000000000000000000000000000000000000000600082015250565b7f7061796f7574206675636b656400000000000000000000000000000000000000600082015250565b7f6f6e6c79206f6e63650000000000000000000000000000000000000000000000600082015250565b610a7b8161098f565b8114610a8657600080fd5b5056fea26469706673582212206b24dd88ec75868a2eb749b91ee387937f6097f6ab4e18ad1fdd8d827389374164736f6c63430008010033",
  "linkReferences": {},
  "deployedLinkReferences": {}
}