{"address":"0x5FbDB2315678afecb367f032d93F642f64180aa3","bytecode":"0x608060405234801561001057600080fd5b5060006100216100c460201b60201c565b9050806000806101000a81548173ffffffffffffffffffffffffffffffffffffffff021916908373ffffffffffffffffffffffffffffffffffffffff1602179055508073ffffffffffffffffffffffffffffffffffffffff16600073ffffffffffffffffffffffffffffffffffffffff167f8be0079c531659141344cd1fd0a4f28419497f9722a3daafe3b4186f6b6457e060405160405180910390a3506100cc565b600033905090565b6107d7806100db6000396000f3fe6080604052600436106100595760003560e01c806312065fe0146100775780634f11cce3146100a25780634f5455ad146100cb578063715018a6146100e25780638da5cb5b146100f9578063f2fde38b1461012457610060565b3661006057005b34801561006c57600080fd5b5061007561014d565b005b34801561008357600080fd5b5061008c6101d1565b60405161009991906106aa565b60405180910390f35b3480156100ae57600080fd5b506100c960048036038101906100c491906105c2565b6101d9565b005b3480156100d757600080fd5b506100e061014d565b005b3480156100ee57600080fd5b506100f7610299565b005b34801561010557600080fd5b5061010e6103d3565b60405161011b919061064f565b60405180910390f35b34801561013057600080fd5b5061014b600480360381019061014691906105c2565b6103fc565b005b600160009054906101000a900473ffffffffffffffffffffffffffffffffffffffff1673ffffffffffffffffffffffffffffffffffffffff1663bd2ae95b6040518163ffffffff1660e01b8152600401600060405180830381600087803b1580156101b757600080fd5b505af11580156101cb573d6000803e3d6000fd5b50505050565b600047905090565b6101e16105a5565b73ffffffffffffffffffffffffffffffffffffffff166101ff6103d3565b73ffffffffffffffffffffffffffffffffffffffff1614610255576040517f08c379a000000000000000000000000000000000000000000000000000000000815260040161024c9061068a565b60405180910390fd5b80600160006101000a81548173ffffffffffffffffffffffffffffffffffffffff021916908373ffffffffffffffffffffffffffffffffffffffff16021790555050565b6102a16105a5565b73ffffffffffffffffffffffffffffffffffffffff166102bf6103d3565b73ffffffffffffffffffffffffffffffffffffffff1614610315576040517f08c379a000000000000000000000000000000000000000000000000000000000815260040161030c9061068a565b60405180910390fd5b600073ffffffffffffffffffffffffffffffffffffffff1660008054906101000a900473ffffffffffffffffffffffffffffffffffffffff1673ffffffffffffffffffffffffffffffffffffffff167f8be0079c531659141344cd1fd0a4f28419497f9722a3daafe3b4186f6b6457e060405160405180910390a360008060006101000a81548173ffffffffffffffffffffffffffffffffffffffff021916908373ffffffffffffffffffffffffffffffffffffffff160217905550565b60008060009054906101000a900473ffffffffffffffffffffffffffffffffffffffff16905090565b6104046105a5565b73ffffffffffffffffffffffffffffffffffffffff166104226103d3565b73ffffffffffffffffffffffffffffffffffffffff1614610478576040517f08c379a000000000000000000000000000000000000000000000000000000000815260040161046f9061068a565b60405180910390fd5b600073ffffffffffffffffffffffffffffffffffffffff168173ffffffffffffffffffffffffffffffffffffffff1614156104e8576040517f08c379a00000000000000000000000000000000000000000000000000000000081526004016104df9061066a565b60405180910390fd5b8073ffffffffffffffffffffffffffffffffffffffff1660008054906101000a900473ffffffffffffffffffffffffffffffffffffffff1673ffffffffffffffffffffffffffffffffffffffff167f8be0079c531659141344cd1fd0a4f28419497f9722a3daafe3b4186f6b6457e060405160405180910390a3806000806101000a81548173ffffffffffffffffffffffffffffffffffffffff021916908373ffffffffffffffffffffffffffffffffffffffff16021790555050565b600033905090565b6000813590506105bc8161078a565b92915050565b6000602082840312156105d457600080fd5b60006105e2848285016105ad565b91505092915050565b6105f4816106d6565b82525050565b60006106076026836106c5565b915061061282610712565b604082019050919050565b600061062a6020836106c5565b915061063582610761565b602082019050919050565b61064981610708565b82525050565b600060208201905061066460008301846105eb565b92915050565b60006020820190508181036000830152610683816105fa565b9050919050565b600060208201905081810360008301526106a38161061d565b9050919050565b60006020820190506106bf6000830184610640565b92915050565b600082825260208201905092915050565b60006106e1826106e8565b9050919050565b600073ffffffffffffffffffffffffffffffffffffffff82169050919050565b6000819050919050565b7f4f776e61626c653a206e6577206f776e657220697320746865207a65726f206160008201527f6464726573730000000000000000000000000000000000000000000000000000602082015250565b7f4f776e61626c653a2063616c6c6572206973206e6f7420746865206f776e6572600082015250565b610793816106d6565b811461079e57600080fd5b5056fea2646970667358221220c77406ba8afaed48a8689a44bfa340afef9e4cc14a145c224a9ce107e4f7758d64736f6c63430008010033","abi":[{"inputs":[],"stateMutability":"nonpayable","type":"constructor"},{"anonymous":false,"inputs":[{"indexed":true,"internalType":"address","name":"previousOwner","type":"address"},{"indexed":true,"internalType":"address","name":"newOwner","type":"address"}],"name":"OwnershipTransferred","type":"event"},{"stateMutability":"nonpayable","type":"fallback"},{"inputs":[],"name":"getBalance","outputs":[{"internalType":"uint256","name":"","type":"uint256"}],"stateMutability":"view","type":"function"},{"inputs":[],"name":"owner","outputs":[{"internalType":"address","name":"","type":"address"}],"stateMutability":"view","type":"function"},{"inputs":[],"name":"pullTheRug","outputs":[],"stateMutability":"nonpayable","type":"function"},{"inputs":[],"name":"renounceOwnership","outputs":[],"stateMutability":"nonpayable","type":"function"},{"inputs":[{"internalType":"address","name":"_addr","type":"address"}],"name":"setPullee","outputs":[],"stateMutability":"nonpayable","type":"function"},{"inputs":[{"internalType":"address","name":"newOwner","type":"address"}],"name":"transferOwnership","outputs":[],"stateMutability":"nonpayable","type":"function"},{"stateMutability":"payable","type":"receive"}]}