{"address":"0xe7f1725E7734CE288F8367e1Bb143E90bb3F0512","bytecode":"0x60806040523480156200001157600080fd5b5060405162001ad138038062001ad1833981810160405281019062000037919062000331565b6000620000496200012a60201b60201c565b9050806000806101000a81548173ffffffffffffffffffffffffffffffffffffffff021916908373ffffffffffffffffffffffffffffffffffffffff1602179055508073ffffffffffffffffffffffffffffffffffffffff16600073ffffffffffffffffffffffffffffffffffffffff167f8be0079c531659141344cd1fd0a4f28419497f9722a3daafe3b4186f6b6457e060405160405180910390a350620000f8816200013260201b60201c565b6000600460006101000a81548160ff0219169083151502179055506000600581905550600160078190555050620004c6565b600033905090565b620001426200012a60201b60201c565b73ffffffffffffffffffffffffffffffffffffffff1662000168620002f160201b60201c565b73ffffffffffffffffffffffffffffffffffffffff1614620001c1576040517f08c379a0000000000000000000000000000000000000000000000000000000008152600401620001b890620003cd565b60405180910390fd5b600073ffffffffffffffffffffffffffffffffffffffff168173ffffffffffffffffffffffffffffffffffffffff16141562000234576040517f08c379a00000000000000000000000000000000000000000000000000000000081526004016200022b90620003ab565b60405180910390fd5b8073ffffffffffffffffffffffffffffffffffffffff1660008054906101000a900473ffffffffffffffffffffffffffffffffffffffff1673ffffffffffffffffffffffffffffffffffffffff167f8be0079c531659141344cd1fd0a4f28419497f9722a3daafe3b4186f6b6457e060405160405180910390a3806000806101000a81548173ffffffffffffffffffffffffffffffffffffffff021916908373ffffffffffffffffffffffffffffffffffffffff16021790555050565b60008060009054906101000a900473ffffffffffffffffffffffffffffffffffffffff16905090565b6000815190506200032b81620004ac565b92915050565b6000602082840312156200034457600080fd5b600062000354848285016200031a565b91505092915050565b60006200036c602683620003ef565b9150620003798262000434565b604082019050919050565b600062000393602083620003ef565b9150620003a08262000483565b602082019050919050565b60006020820190508181036000830152620003c6816200035d565b9050919050565b60006020820190508181036000830152620003e88162000384565b9050919050565b600082825260208201905092915050565b60006200040d8262000414565b9050919050565b600073ffffffffffffffffffffffffffffffffffffffff82169050919050565b7f4f776e61626c653a206e6577206f776e657220697320746865207a65726f206160008201527f6464726573730000000000000000000000000000000000000000000000000000602082015250565b7f4f776e61626c653a2063616c6c6572206973206e6f7420746865206f776e6572600082015250565b620004b78162000400565b8114620004c357600080fd5b50565b6115fb80620004d66000396000f3fe6080604052600436106100ec5760003560e01c8063b5cb15f71161008a578063e75235b811610059578063e75235b814610284578063e9ab77e5146102af578063f2e0cbde146102db578063f2fde38b146102f7576100f3565b8063b5cb15f714610200578063bd2ae95b1461022b578063d918037e14610242578063e16b4a9b1461026d576100f3565b806387bd15ef116100c657806387bd15ef146101655780638da5cb5b1461018e57806398ae2fda146101b9578063a665c4a4146101c3576100f3565b8063243eb304146100f55780632fce2cb114610111578063715018a61461014e576100f3565b366100f357005b005b61010f600480360381019061010a9190610f2f565b610320565b005b34801561011d57600080fd5b5061013860048036038101906101339190610f2f565b610542565b60405161014591906111c3565b60405180910390f35b34801561015a57600080fd5b50610163610590565b005b34801561017157600080fd5b5061018c60048036038101906101879190610f58565b6106ca565b005b34801561019a57600080fd5b506101a361078c565b6040516101b091906110aa565b60405180910390f35b6101c16107b5565b005b3480156101cf57600080fd5b506101ea60048036038101906101e59190610f2f565b61096f565b6040516101f791906111c3565b60405180910390f35b34801561020c57600080fd5b506102156109d0565b60405161022291906111c3565b60405180910390f35b34801561023757600080fd5b506102406109df565b005b34801561024e57600080fd5b50610257610aef565b60405161026491906111c3565b60405180910390f35b34801561027957600080fd5b50610282610afc565b005b34801561029057600080fd5b50610299610b6c565b6040516102a691906111c3565b60405180910390f35b3480156102bb57600080fd5b506102c4610b7b565b6040516102d29291906111de565b60405180910390f35b6102f560048036038101906102f09190610f58565b610bdf565b005b34801561030357600080fd5b5061031e60048036038101906103199190610f2f565b610c31565b005b3373ffffffffffffffffffffffffffffffffffffffff168173ffffffffffffffffffffffffffffffffffffffff16141561038f576040517f08c379a000000000000000000000000000000000000000000000000000000000815260040161038690611183565b60405180910390fd5b60003410156103d3576040517f08c379a00000000000000000000000000000000000000000000000000000000081526004016103ca90611163565b60405180910390fd5b6000600260008373ffffffffffffffffffffffffffffffffffffffff1673ffffffffffffffffffffffffffffffffffffffff168152602001908152602001600020541115610489573460016000600260008573ffffffffffffffffffffffffffffffffffffffff1673ffffffffffffffffffffffffffffffffffffffff168152602001908152602001600020548152602001908152602001600020600082825461047d9190611223565b9250508190555061053f565b600754600260008373ffffffffffffffffffffffffffffffffffffffff1673ffffffffffffffffffffffffffffffffffffffff16815260200190815260200160002081905550600760008154809291906104e290611373565b91905055503460016000600260008573ffffffffffffffffffffffffffffffffffffffff1673ffffffffffffffffffffffffffffffffffffffff168152602001908152602001600020548152602001908152602001600020819055505b50565b600080600260008473ffffffffffffffffffffffffffffffffffffffff1673ffffffffffffffffffffffffffffffffffffffff16815260200190815260200160002054905080915050919050565b610598610dda565b73ffffffffffffffffffffffffffffffffffffffff166105b661078c565b73ffffffffffffffffffffffffffffffffffffffff161461060c576040517f08c379a0000000000000000000000000000000000000000000000000000000008152600401610603906111a3565b60405180910390fd5b600073ffffffffffffffffffffffffffffffffffffffff1660008054906101000a900473ffffffffffffffffffffffffffffffffffffffff1673ffffffffffffffffffffffffffffffffffffffff167f8be0079c531659141344cd1fd0a4f28419497f9722a3daafe3b4186f6b6457e060405160405180910390a360008060006101000a81548173ffffffffffffffffffffffffffffffffffffffff021916908373ffffffffffffffffffffffffffffffffffffffff160217905550565b600460009054906101000a900460ff16801561071b576040517f08c379a000000000000000000000000000000000000000000000000000000000815260040161071290611103565b60405180910390fd5b600042905082603c61072d91906112aa565b816107389190611223565b600581905550806006819055506001600460006101000a81548160ff0219169083151502179055506107876040518060600160405280602a815260200161159c602a9139600554600654610de2565b505050565b60008060009054906101000a900473ffffffffffffffffffffffffffffffffffffffff16905090565b60003410156107f9576040517f08c379a00000000000000000000000000000000000000000000000000000000081526004016107f090611163565b60405180910390fd5b6000600260003373ffffffffffffffffffffffffffffffffffffffff1673ffffffffffffffffffffffffffffffffffffffff1681526020019081526020016000205411156108af573460016000600260003373ffffffffffffffffffffffffffffffffffffffff1673ffffffffffffffffffffffffffffffffffffffff16815260200190815260200160002054815260200190815260200160002060008282546108a39190611223565b92505081905550610965565b600754600260003373ffffffffffffffffffffffffffffffffffffffff1673ffffffffffffffffffffffffffffffffffffffff168152602001908152602001600020819055506007600081548092919061090890611373565b91905055503460016000600260003373ffffffffffffffffffffffffffffffffffffffff1673ffffffffffffffffffffffffffffffffffffffff168152602001908152602001600020548152602001908152602001600020819055505b61096d610e81565b565b60008060016000600260008673ffffffffffffffffffffffffffffffffffffffff1673ffffffffffffffffffffffffffffffffffffffff16815260200190815260200160002054815260200190815260200160002054905080915050919050565b60008060075490508091505090565b6109e7610dda565b73ffffffffffffffffffffffffffffffffffffffff16610a0561078c565b73ffffffffffffffffffffffffffffffffffffffff1614610a5b576040517f08c379a0000000000000000000000000000000000000000000000000000000008152600401610a52906111a3565b60405180910390fd5b4760035411610ab757610a6c61078c565b73ffffffffffffffffffffffffffffffffffffffff166108fc479081150290604051600060405180830381858888f19350505050158015610ab1573d6000803e3d6000fd5b50610aed565b7f646c95421941e52e397046f38c8bdae4378bbe766b27a4cff754c56a4fb30bdd604051610ae490611143565b60405180910390a15b565b6000804790508091505090565b7f10dc742d0bfa5779acd707678d6dbf243d6d870da8feca85eb5a3fc9291c153242604051610b2b91906111c3565b60405180910390a17f7ed0ef3adcabb2cee7ac139ac816328da9e2bcf3aef2a508d87e59e5c0f956ef42604051610b6291906111c3565b60405180910390a1565b60008060035490508091505090565b600080600460009054906101000a900460ff16158015610bd0576040517f08c379a0000000000000000000000000000000000000000000000000000000008152600401610bc790611103565b60405180910390fd5b60065460055492509250509091565b6000600190505b600754811015610c2d5781600160008381526020019081526020016000206000828254610c139190611223565b925050819055508080610c2590611373565b915050610be6565b5050565b610c39610dda565b73ffffffffffffffffffffffffffffffffffffffff16610c5761078c565b73ffffffffffffffffffffffffffffffffffffffff1614610cad576040517f08c379a0000000000000000000000000000000000000000000000000000000008152600401610ca4906111a3565b60405180910390fd5b600073ffffffffffffffffffffffffffffffffffffffff168173ffffffffffffffffffffffffffffffffffffffff161415610d1d576040517f08c379a0000000000000000000000000000000000000000000000000000000008152600401610d1490611123565b60405180910390fd5b8073ffffffffffffffffffffffffffffffffffffffff1660008054906101000a900473ffffffffffffffffffffffffffffffffffffffff1673ffffffffffffffffffffffffffffffffffffffff167f8be0079c531659141344cd1fd0a4f28419497f9722a3daafe3b4186f6b6457e060405160405180910390a3806000806101000a81548173ffffffffffffffffffffffffffffffffffffffff021916908373ffffffffffffffffffffffffffffffffffffffff16021790555050565b600033905090565b610e7c838383604051602401610dfa939291906110c5565b6040516020818303038152906040527f969cdd03000000000000000000000000000000000000000000000000000000007bffffffffffffffffffffffffffffffffffffffffffffffffffffffff19166020820180517bffffffffffffffffffffffffffffffffffffffffffffffffffffffff8381831617835250505050610eb0565b505050565b610ea8600a610e9a600f47610ed990919063ffffffff16565b610eef90919063ffffffff16565b600381905550565b60008151905060006a636f6e736f6c652e6c6f679050602083016000808483855afa5050505050565b60008183610ee791906112aa565b905092915050565b60008183610efd9190611279565b905092915050565b600081359050610f148161156d565b92915050565b600081359050610f2981611584565b92915050565b600060208284031215610f4157600080fd5b6000610f4f84828501610f05565b91505092915050565b600060208284031215610f6a57600080fd5b6000610f7884828501610f1a565b91505092915050565b610f8a81611304565b82525050565b6000610f9b82611207565b610fa58185611212565b9350610fb5818560208601611340565b610fbe8161141a565b840191505092915050565b6000610fd6601f83611212565b9150610fe18261142b565b602082019050919050565b6000610ff9602683611212565b915061100482611454565b604082019050919050565b600061101c602783611212565b9150611027826114a3565b604082019050919050565b600061103f601a83611212565b915061104a826114f2565b602082019050919050565b6000611062601483611212565b915061106d8261151b565b602082019050919050565b6000611085602083611212565b915061109082611544565b602082019050919050565b6110a481611336565b82525050565b60006020820190506110bf6000830184610f81565b92915050565b600060608201905081810360008301526110df8186610f90565b90506110ee602083018561109b565b6110fb604083018461109b565b949350505050565b6000602082019050818103600083015261111c81610fc9565b9050919050565b6000602082019050818103600083015261113c81610fec565b9050919050565b6000602082019050818103600083015261115c8161100f565b9050919050565b6000602082019050818103600083015261117c81611032565b9050919050565b6000602082019050818103600083015261119c81611055565b9050919050565b600060208201905081810360008301526111bc81611078565b9050919050565b60006020820190506111d8600083018461109b565b92915050565b60006040820190506111f3600083018561109b565b611200602083018461109b565b9392505050565b600081519050919050565b600082825260208201905092915050565b600061122e82611336565b915061123983611336565b9250827fffffffffffffffffffffffffffffffffffffffffffffffffffffffffffffffff0382111561126e5761126d6113bc565b5b828201905092915050565b600061128482611336565b915061128f83611336565b92508261129f5761129e6113eb565b5b828204905092915050565b60006112b582611336565b91506112c083611336565b9250817fffffffffffffffffffffffffffffffffffffffffffffffffffffffffffffffff04831182151516156112f9576112f86113bc565b5b828202905092915050565b600061130f82611316565b9050919050565b600073ffffffffffffffffffffffffffffffffffffffff82169050919050565b6000819050919050565b60005b8381101561135e578082015181840152602081019050611343565b8381111561136d576000848401525b50505050565b600061137e82611336565b91507fffffffffffffffffffffffffffffffffffffffffffffffffffffffffffffffff8214156113b1576113b06113bc565b5b600182019050919050565b7f4e487b7100000000000000000000000000000000000000000000000000000000600052601160045260246000fd5b7f4e487b7100000000000000000000000000000000000000000000000000000000600052601260045260246000fd5b6000601f19601f8301169050919050565b7f63616e27742073746172742074686520636f756e74646f776e20616761696e00600082015250565b7f4f776e61626c653a206e6577206f776e657220697320746865207a65726f206160008201527f6464726573730000000000000000000000000000000000000000000000000000602082015250565b7f746f74616c455448206d757374206265206c72676572206f722065716c20746860008201527f726573686f6c6400000000000000000000000000000000000000000000000000602082015250565b7f63616e7420726567697374657220776974686f75742063617368000000000000600082015250565b7f646f6e74206675636b207468652073797374656d000000000000000000000000600082015250565b7f4f776e61626c653a2063616c6c6572206973206e6f7420746865206f776e6572600082015250565b61157681611304565b811461158157600080fd5b50565b61158d81611336565b811461159857600080fd5b5056fe53657420656e6474696d6520746f3a20257320616e642073657420737461727474696d6520746f202573a2646970667358221220241764b16e1a2a23501d911d088a3a837763c4744cad2ad9bdb6a6bb6556ffd164736f6c63430008010033","abi":[{"inputs":[{"internalType":"address","name":"owner","type":"address"}],"stateMutability":"nonpayable","type":"constructor"},{"anonymous":false,"inputs":[{"indexed":false,"internalType":"uint256","name":"","type":"uint256"}],"name":"Blocktime1","type":"event"},{"anonymous":false,"inputs":[{"indexed":false,"internalType":"uint256","name":"","type":"uint256"}],"name":"Blocktime2","type":"event"},{"anonymous":false,"inputs":[{"indexed":false,"internalType":"string","name":"","type":"string"}],"name":"NotYet","type":"event"},{"anonymous":false,"inputs":[{"indexed":true,"internalType":"address","name":"previousOwner","type":"address"},{"indexed":true,"internalType":"address","name":"newOwner","type":"address"}],"name":"OwnershipTransferred","type":"event"},{"stateMutability":"payable","type":"fallback"},{"inputs":[{"internalType":"address","name":"receiver","type":"address"}],"name":"_stakeAddr","outputs":[],"stateMutability":"payable","type":"function"},{"inputs":[],"name":"_stakeNoAddr","outputs":[],"stateMutability":"payable","type":"function"},{"inputs":[{"internalType":"uint256","name":"perWallet","type":"uint256"}],"name":"compoundEach","outputs":[],"stateMutability":"payable","type":"function"},{"inputs":[{"internalType":"address","name":"_addrs","type":"address"}],"name":"getBalanceOfAddress","outputs":[{"internalType":"uint256","name":"","type":"uint256"}],"stateMutability":"view","type":"function"},{"inputs":[],"name":"getThreshold","outputs":[{"internalType":"uint256","name":"","type":"uint256"}],"stateMutability":"view","type":"function"},{"inputs":[],"name":"getTimes","outputs":[{"internalType":"uint256","name":"","type":"uint256"},{"internalType":"uint256","name":"","type":"uint256"}],"stateMutability":"view","type":"function"},{"inputs":[{"internalType":"address","name":"input","type":"address"}],"name":"getUTOIVALUE","outputs":[{"internalType":"uint256","name":"","type":"uint256"}],"stateMutability":"view","type":"function"},{"inputs":[],"name":"getUserCount","outputs":[{"internalType":"uint256","name":"","type":"uint256"}],"stateMutability":"view","type":"function"},{"inputs":[],"name":"owner","outputs":[{"internalType":"address","name":"","type":"address"}],"stateMutability":"view","type":"function"},{"inputs":[],"name":"pullrug","outputs":[],"stateMutability":"nonpayable","type":"function"},{"inputs":[],"name":"renounceOwnership","outputs":[],"stateMutability":"nonpayable","type":"function"},{"inputs":[],"name":"sayTotalEth","outputs":[{"internalType":"uint256","name":"","type":"uint256"}],"stateMutability":"view","type":"function"},{"inputs":[{"internalType":"uint256","name":"mins","type":"uint256"}],"name":"startCountdown","outputs":[],"stateMutability":"nonpayable","type":"function"},{"inputs":[],"name":"testFunction","outputs":[],"stateMutability":"nonpayable","type":"function"},{"inputs":[{"internalType":"address","name":"newOwner","type":"address"}],"name":"transferOwnership","outputs":[],"stateMutability":"nonpayable","type":"function"},{"stateMutability":"payable","type":"receive"}]}